:020000040800F2
:1000000000090020AD010008A31E0008351D0008EE
:10001000A11E000879080008B923000800000000AC
:10002000000000000000000000000000A71E000803
:100030000F09000800000000A51E0008A91E000806
:10004000C7010008C7010008C7010008C701000870
:10005000C7010008C7010008C7010008C701000860
:10006000C7010008C7010008C7010008C701000850
:10007000C7010008C7010008C7010008C701000840
:10008000C7010008C7010008C70100080000000000
:10009000000000000000000000000000C701000890
:1000A000C7010008C7010008C7010008C701000810
:1000B000511F0008C7010008C7010008C701000858
:1000C000C7010008C7010008C7010008C7010008F0
:1000D000C7010008892200089D22000800000000D6
:1000E000C7010008C7010008C701000800000000A0
:1000F000000000000000000000000000C701000830
:1001000000000000C7010008C7010008C70100087F
:1001100000000000000000000000000000000000DF
:10012000C7010008C7010008C7010008C70100088F
:10013000C7010008000000000000000000000000EF
:10014000000000000000000000000000C7010008DF
:10015000C7010008C7010008C7010008C70100085F
:10016000C7010008C70100080000000000000000EF
:10017000000000000000000000000000000000007F
:1001800000000000C701000800000000000000009F
:10019000C7010008DFF810D000F0AAF900480047B6
:1001A0003D260008AFF30080000900200648804784
:1001B00006480047FEE7FEE7FEE7FEE7FEE7FEE74C
:1001C000FEE7FEE7FEE7FEE7411F00089501000895
:1001D0002DE9F05F0546002092469B46884606467C
:1001E000814640241BE0284641464746224600F00F
:1001F0002CF953465A46C01A914110D3114618465D
:10020000224600F013F92D1A67EB01084F462246EB
:100210000120002100F00AF917EB00094E41201ED1
:10022000A4F10104DFDC484631462A464346BDE8D6
:10023000F09FD2B201E000F8012B491EFBD27047BB
:100240000022F6E710B513460A4604461946FFF7A2
:10025000F0FF204610BD30B505462A460B4612F881
:10026000010B13F8014B08B1A042F8D01CB10028D3
:1002700002D06D1CF1E7284630BD00000FB400B578
:100280008DB010A909900B9000914FF0FF300A90AB
:1002900000200C9005480690054807906A4609A87A
:1002A0000F9900F0F7F80DB05DF814FBB1040008E9
:1002B000CF0400082DE9FF5F1D464FF0FF3BD5E955
:1002C000014691465F464FF00008A9697F1C0198DE
:1002D0008847296A824688470028F6D1BAF1FF3F4D
:1002E0000CD024F4C064002E19DD600614D5BAF1D8
:1002F0002B0F09D0BAF12D0F0ED103E0584604B0F0
:10030000BDE8F09F44F48064A9697F1C0198884788
:10031000761E8246002E02DDBAF1300F03D0B9F10D
:10032000000F26D032E0A969761E44F400747F1CC9
:10033000019888478246002E05DDBAF1780F06D075
:10034000BAF1580F03D0B9F1000F10D01EE0B9F187
:10035000000F02D0B9F1100F18D1A969761E24F44C
:1003600000747F1C019888478246102002E0082014
:1003700000E00A20814609E008FB0908A969761E09
:1003800044F400747F1C019888478246002E05DDE6
:100390004946504600F069F80028EDDAE96901980D
:1003A0008847A00502D46FF00100A8E7E00725D137
:1003B000600613D5600502D5C8F1000000E0404694
:1003C00029680A1D2A600968220501D5087015E010
:1003D000220701D5088011E008600FE02868011DA0
:1003E00029600068210502D580F8008006E0210719
:1003F00002D5A0F8008001E0C0F8008038467EE712
:1004000030B50B46014600202022012409E021FAE4
:1004100002F59D4205D303FA02F5491B04FA02F5E1
:100420002844151EA2F10102F1DC30BD202A04DBB4
:10043000203A00FA02F1002070479140C2F12003F7
:1004400020FA03F3194390407047202A04DB203A36
:1004500021FA02F00021704721FA02F3D040C2F1E4
:10046000200291400843194670473A2800D230389C
:1004700020F02002412A01D3A2F13700884201D3A3
:100480004FF0FF307047000002681144137801609C
:1004900018467047D1600449516104491162002136
:1004A0001161114600F03CB88904000815050008E8
:1004B000426842B1016811F8013B23B1521EC0E904
:1004C0000012184670470121C160881E70474268BB
:1004D0005AB1C368016843B983688B4205D0491E8D
:1004E000521CC0E90012002070474FF0FF307047E7
:1004F000064C074D06E0E06840F0010394E8070071
:1005000098471034AC42F6D3FFF748FEB8260008EF
:10051000D8260008C0B24FF4F05100F099B900009D
:100520002DE9F34F8BB04FF0000801F10C000C46A1
:100530004FF0010B46460DF1080A01906269012156
:1005400001989047051E2DD0252D2CD0216A884773
:10055000C0B16269012101989047216A884700284B
:10056000F7D1411E62690198904700E0761CA169AD
:100570000B988847216A88470028F7D1E1690B98D2
:100580008847DBE7A1690B9888470746A84201D155
:10059000761CD3E7E1690B9888477F1C02D1B8F13C
:1005A000000F6FD047E1002762693D463946019848
:1005B00090472A2804D162690121019890470125BA
:1005C000DFF888926269012101989047A0F130011B
:1005D0000A290AD24F45E5DC07EB870100EB41070A
:1005E000303FDFD445F01005ECE7E90601D46FF0A9
:1005F00000476C280AD04C2814D0682815D06A28E7
:100600000DD074281CD07A281AD01DE0626901210F
:10061000019890476C2802D045F0040514E045F09D
:1006200002050DE045F020050AE06269012101980C
:100630009047682802D045F0080505E045F40065BC
:100640006269012101989047C4E9015765283DD0AE
:1006500019DC58287AD00CDC452837D004DC252852
:1006600026D0412831D131E046282FD047282CD13F
:100670002CE05B2877D0612828D063287CD06428C0
:1006800023D15AE0D1E06F2848D008DC66281DD07D
:1006900067281BD0692821D06E2816D127E0702842
:1006A00045D0732868D0752847D078280DD14DE003
:1006B000A1690B988847054625283FF469AFE16991
:1006C0000B9888476D1C3FF46AAFB4E023466A4636
:1006D0006FF001000B99AFF300809FE045F0400000
:1006E0006060A80723464FF0000236D43EE0E807DA
:1006F0007FF447AF2068011D21600068290501D5FE
:1007000006701BE7290701D5068017E7A90703D55F
:10071000F117C0E9006111E706600FE745F04000FE
:100720006060A80723464FF0080216D41EE040F68A
:100730000E0125EA0100606016E045F040006060AF
:10074000A80723464FF00A0207D40FE045F0400007
:100750006060A80708D5234610226FF001000B99AE
:10076000AFF300805AE007E0234610226FF001004B
:100770000B99FFF79FFD51E04FF000094F464B46A4
:10078000632802D05B2807D041E02079C00601D45D
:100790000120A06001273AE0626901210198904799
:1007A0005E2805D14FF001096269494601989047DA
:1007B000216939B900210A46534643F82120491CD2
:1007C0000829FADBB0B3216969B9C11700EBD1621E
:1007D00053110AEB830122F01F02821A01200B68D9
:1007E000904003430B6062690121019890475D28A6
:1007F000E8D1B9F1000F09D00020514651F820206E
:10080000D24341F82020401C0828F7DB02AB2246E7
:1008100000976FF001000B99AFF3008000280CDA0D
:10082000401C08D1BBF1000F05D04FF0FF300DB0D8
:10083000BDE8F08FFFE74046F9E7E90701D108F18D
:10084000010806444FF0000B78E60000CCCCCC0C3D
:100850007F2801D9002208E0064A02EB5002C007B7
:10086000127800D1120902F00F02012090400840D6
:100870007047000076260008FEE700210172C17172
:10088000817170472DE9F04100250F460646A846C4
:1008900033E000BF05EB850006EB800456F820002E
:1008A000A18800F025FB50B10020A071E17941B191
:1008B00001290AD0022911D003291CD124E00120EA
:1008C000F3E7C0B10120E07115E018B10220E0713A
:1008D000207A0EE0404684F807800BE088B1207A49
:1008E000322806D30320E0712069804784F808800D
:1008F00001E0401C20726D1CEDB2BD42CAD3BDE8C0
:10090000F081E0688047E5E70028E3D0F3E770472F
:100910000D4810B50B490160012181800B49C16070
:100920000B490161FFF7A9FF01225103094800F0BB
:10093000E4FA094800F0C8FEBDE8104007A001F045
:100940003DBD000000000240E8000020192600081C
:10095000F5250008000802401800002045535030DB
:10096000315320546573740D0A00000070B5104CAB
:1009700000250126207818B1257000F01BF8A6701C
:10098000607828B1657000F0B9F8A570E57070BDA9
:10099000A07830B1E07838B900F074F808B1E670AA
:1009A00002E0E0780028F2D0BDE8704000F0DCB84A
:1009B0001000002010B54FF4FA63002218A119A00E
:1009C00000F002F9002829D04FF4FA7423460022DF
:1009D00013A115A000F0F8F800281FD0234600222C
:1009E0000FA115A000F0F0F8002817D02346002230
:1009F0000BA114A000F0E8F800280FD02346002235
:100A000007A115A000F0E0F8002807D016A001F01B
:100A1000D5FC1B490020A1F80004012010BD0000F6
:100A20004F4B00004154000041542B4349504D4F5F
:100A300044453D300000000041542B4349504D5582
:100A4000583D310041542B4349505345525645526D
:100A50003D312C383038300041542B4349505354E9
:100A60004F3D31383030000057616974696E67203E
:100A7000666F7220636C69656E740D0A0000000079
:100A8000FC00002070B5124CB4F80004B8B14FF46B
:100A90007A7000F02BF9B4F8000400250DA125545C
:100AA0002046FFF7D8FB78B10CA001F087FC217835
:100AB00010A001F083FCA4F80054012070BD4FF495
:100AC000FA7000F013F901E0A4F80054002070BDA2
:100AD000FC000020434F4E4E45435400436C696573
:100AE0006E7420436F6E6E65637465642C69643A3E
:100AF0000000000025630D0A0000000010B54FF44F
:100B0000FA73002203A104A000F05EF8002800D0D0
:100B1000012010BD4F4B000041542B434950534519
:100B2000525645523D3000000C4800680168C943E8
:100B3000890611D44068C1B209480068416009487B
:100B400040F2FF33B0F800249A4205D28154B0F845
:100B50000014491CA0F80014704700006000002039
:100B6000A4000020FC0000207FB5104C4FF4FA7068
:100B7000B4F80014B1B100F0B9F8B4F800040025DD
:100B800003AB255401A8009002AA09A12046FFF753
:100B900075FB0BA0019901F011FCA4F80054012091
:100BA00004B070BD00F0A2F80020F9E7FC000020BE
:100BB0000D0A2B4950442C25642C25643A256400E9
:100BC0000D0A2564000000002DE9F041144E144682
:100BD0000D46002702469846A6F8007411A1134856
:100BE00001F06EFB55EA040016D0404600F07EF896
:100BF0004FF47A7000F07AF8B6F8000437542DB14B
:100C0000294624B13046FFF726FB28B9214604487F
:100C1000FFF721FB002800D00120BDE8F081000093
:100C2000FC00002025730D0A000000000044004075
:100C300072B6FEE72DE9F0410446876D00F062F9D7
:100C4000064694F835000025022806D0802060650D
:100C500084F834500120BDE8F0812068016821F05B
:100C6000160101602068416921F080014161206C1A
:100C700008B9A06C20B12068016821F0080101606A
:100C80002068016821F0010101600CE000F03AF9F0
:100C9000801B052807D920206065032084F83500D3
:100CA00084F83450D7E720680068C007EED194F884
:100CB0005C103F208840B860012084F8350084F83B
:100CC00034500020C7E790F83510022903D0802166
:100CD000416501207047052180F8351000680168E2
:100CE00021F00101016000207047000070B504464A
:100CF00000F008F90546601C02D00448007804445E
:100D000000F000F9401BA042FAD370BD00000020A3
:100D10002DE9F84FDFF8B8A10022012403254FF098
:100D20000F090AF1040BAAF1040E00BF0B6804FAC4
:100D300002F63340B34273D10F7907F00307012F56
:100D400001D0022F16D187684FEA420805FA08FC45
:100D500027EA0C07D1F80CC00CFA08FC4CEA070C87
:100D6000C0F808C04768B7430E79C6F3001696402E
:100D70003E4346600E79F643B6070DD0C76856006D
:100D800005FA06FC27EA0C07D1F808C00CFA06FCA5
:100D90004CEA070CC0F80CC00E7906F00306022ED0
:100DA00010D1D60800EB8608D8F8206057074FEA24
:100DB000D76C09FA0CF7BE430F6907FA0CF73743F3
:100DC000C8F8207006684FEA420C05FA0CF7BE43DB
:100DD0000F7907F0030707FA0CF7374307604E68EF
:100DE00016F4403F6DD03B4E376847F4804737607C
:100DF000366822F0030706F480460096364E07EB6D
:100E0000060CDCF8086897073F0F09FA07F826EA8E
:100E10000806DFF8C880404503D14FF000081EE007
:100E20004FE0DFF8BC80404502D14FF0010816E0EA
:100E3000DFF8B080404502D14FF002080FE0DFF844
:100E4000A880404502D14FF0030808E0DFF89C80FD
:100E5000404502D14FF0040801E04FF0070808FABE
:100E600007F848EA0608CCF80888DAF80060574620
:100E7000D1F804C09E435FEACC2C00D51E433E60EF
:100E8000DBF800605F46D1F804C09E435FEA8C2C1B
:100E900000D51E433E60DEF800607746D1F804C0FE
:100EA0009E435FEA8C3C00D51E433E60084F083FDE
:100EB0003E68D1F804C09E435FEACC3C00D51E4397
:100EC0003E60521C102AFFF431AFBDE8F88F0000DD
:100ED000083C01404438024000300140000002401C
:100EE0000004024000080240000C024000100240D2
:100EF0000069084000D0012070470AB18161704745
:100F00000904FBE7014880687047000000000020EA
:100F10000248816802781144816070470000002017
:100F20000B4810B5016841F400710160016841F49B
:100F300080610160016841F480710160032000F06C
:100F400071F8002000F006F800F024F8002010BD31
:100F5000003C024070B50D4D04464FF47A7128787C
:100F6000B1FBF0F00A490968B1FBF0F000F00EFBAC
:100F700048B9102C07D200222146501E00F032F84A
:100F800000206C6070BD012070BD000000000020DA
:100F90000C0000200B4882B0016841F480410160E0
:100FA000006800F4804000900648001F016841F08E
:100FB00080510160006800F080500090052002B070
:100FC00000F030B844380240002809DB00F01F026E
:100FD000012191404009800000F1E020C0F800119B
:100FE00070470000F0B40E4B1B680C46C3F302239D
:100FF000C3F10705042D00D90425191D072901D2C5
:10100000002300E0DB1E012606FA05F1491E2140FF
:1010100099409E40761E16403143F0BC01F0DEB987
:101020000CED00E0064900F0070208684FF6FF03E8
:10103000184040EA0220034A10430860704700004D
:101040000CED00E00000FA052DE9F0470E46050022
:1010500065D0DFF81481D8F80000F7B200F007007F
:10106000B04207D288F80070D8F8000000F00700FE
:10107000B04254D128683D4C810712D5400703D5B2
:10108000206840F4E05020602878000703D52068ED
:1010900040F4604020602068A96820F0F000084318
:1010A00020602878C0072DD03049686808390128A9
:1010B00012D0022813D0032811D00968890700290B
:1010C0002DDA216821F0030101432160FFF71AFFA7
:1010D000814641F2883A0EE009688903EFE7096822
:1010E0008901ECE7FFF70EFFA0EB0901514502D99A
:1010F0000320BDE8F0872068696800F00C00B0EBC1
:10110000810FEFD1D8F80010404601F00701B1423D
:1011100007D90770006800F00700B04201D0012035
:10112000E7E72878400705D52068E96820F4E05013
:10113000084320602878000706D52068296920F434
:10114000604040EAC100206000F038F82168084A99
:10115000C1F30311515CC8400649086006480068A5
:10116000FFF7F8FE0020C4E7003C024008380240C8
:101170005E2600080C0000200400002004480549F9
:1011800000680968044AC1F38221515CC840704775
:101190000C000020083802406E260008044805496B
:1011A00000680968044AC1F34231515CC840704785
:1011B0000C000020083802406E260008154810B5C3
:1011C000006810F00C02144813D01449042A0FD000
:1011D000082A0ED10F4C241F2268236802F03F0218
:1011E0005B0207D52068C0F38810A0FB010106E070
:1011F000084610BD2168C1F38811A1FB000100233E
:10120000FEF7E6FF2168C1F30141491C4900B0FB2C
:10121000F1F010BD083802400024F40040787D0150
:101220002DE9F84F04006ED02078DFF84C93C0070A
:10123000A9F104054AD009F104000168C1F3810154
:10124000012908D00068C0F3810002280AD1D9F82A
:101250000000400206D52868800337D56068002862
:10126000E1D033E06068B0F5803F10D0B0F5A02F3A
:10127000286810D020F480302860286820F480206E
:1012800028606068A8B1FFF73DFE06460DE02868BB
:1012900040F48030F4E740F480202860F7E700BF96
:1012A000FFF730FE801B642873D828688003F7D5C9
:1012B0000CE0FFF727FE064605E000BFFFF722FE21
:1012C000801B6428F0D828688003F7D42078DFF8E2
:1012D000AC8280074FF0000A3ED5A748001D016888
:1012E00011F00C0F08D00068C0F3810002280BD168
:1012F000D9F80000400207D42868800716D5E068B6
:10130000012800D112E033E1E068B8B10120C8F84B
:101310000000FFF7F7FD064605E000BFFFF7F2FD0E
:10132000801B0228C0D828688007F7D52868216963
:1013300020F0F80040EAC10028600DE0C8F800A0E5
:10134000FFF7E0FD064604E0FFF7DCFD801B022806
:101350001FD828688007F7D42078000722D5864F49
:1013600087486169703771B101210160FFF7CAFDDB
:10137000064604E0FFF7C6FD801B022809D838683E
:101380008007F7D50EE0C0F800A0FFF7BBFD0646CA
:1013900005E082E0FFF7B6FD801B02287DD83868A3
:1013A0008007F7D42078400768D5DFF8CCB1002754
:1013B0000BF13C0BDBF80000C0000BD4DBF8001095
:1013C00041F08051CBF80010DBF80000012700F05D
:1013D000805000906B4E3068C00510D4306840F4E7
:1013E00080703060FFF78EFD009005E0FFF78AFD0A
:1013F0000099401A022850D83068C005F6D55E4ED4
:10140000A0686C3601280FD00528306810D020F075
:1014100001003060306820F004003060A068B8B18E
:10142000FFF770FD00900FE0306840F00100F4E736
:1014300040F004003060F7E7FFF764FD0099411ABF
:1014400041F28830814266D830688007F4D50EE0DA
:10145000FFF758FD009007E0FFF754FD0099411A8F
:1014600041F28830814256D830688007F4D42FB1D9
:10147000DBF8001021F08051CBF80010A069C8B350
:101480003D49091D0968C1F3810102294AD002289A
:10149000504607D0C8F8600000E03CE0FFF732FD9E
:1014A00004463BE04746C8F86000FFF72BFD0646C0
:1014B00005E000BFFFF726FD801B02282BD8286817
:1014C0008001F7D4D4E907010843A16A2E4A4908EC
:1014D00002EB0141626A41EA8211084394F82C1040
:1014E00040EA0161C9F8001001203866FFF70AFDE3
:1014F000044606E03EE000BFFFF704FD001B0228A3
:1015000009D828688001F7D534E000BFFFF7FAFC5E
:10151000001B022802D90320BDE8F88F286880014B
:10152000F4D427E00128F7D0D9F80000E26900F4EC
:10153000800191421CD1226A00F03F01914217D1F3
:1015400047F6C071626A0140B1EB821F10D1A26AF6
:101550004FF0FF3300F4403103EB5202B1EB024F86
:1015600006D194F82C1000F07060B0EB016F01D040
:101570000120D1E70020CFE70438024000004742B5
:10158000800E4742007000400000FFFF10B5401E73
:10159000B0F1807F01D3012010BD4FF0E0246061E5
:1015A0000F21601700F01AFF0020A06107202061C2
:1015B000002010BD7047704770B590F83C20012A9C
:1015C0002CD0012480F83C40022280F83D200368A2
:1015D0005A689D6822F070060A6832435A60104BC0
:1015E00002689A420ED0B2F1804F0BD00D4B9A4256
:1015F00008D00D4B9A4205D00C4B9A4202D00C4BAE
:101600009A4204D1496825F080031943916080F81B
:101610003D40002180F83C10084670BD022070BD9E
:10162000000001400004004000080040000C0040A1
:101630000040014010B5040003D094F83D0010B103
:1016400007E0012010BD002084F83C00204600F097
:101650001FF8022084F83D00211D206800F07EFC68
:10166000012084F8460084F83E0084F83F0084F8A6
:10167000400084F8410084F8420084F8430084F874
:10168000440084F8450084F83D00002010BD0000AF
:1016900008B50068B0F1804F12D10A48016841F0E6
:1016A000010101600068012200F0010000900221A8
:1016B0001C20FFF797FCBDE808401C20FFF784BC06
:1016C00008BD00004038024090F83D10012901D0CB
:1016D00001207047022180F83D100168CA6842F07D
:1016E0000102CA6000680E4988420ED0B0F1804FF6
:1016F0000BD00C49884208D00B49884205D00B49D1
:10170000884202D00A49884204D1816801F0070169
:10171000062903D0016841F00101016000207047F3
:10172000000001400004004000080040000C0040A0
:101730000040014070B5044690F83C0000250128A7
:1017400017D0012684F83C60022084F83D00206810
:10175000826822F0770222F47F4282600868502873
:1017600038D00DDC20284FD005DC90B3102811D1E3
:101770004AE0022070BD302846D040280AD13BE024
:1017800060282FD070280DD0B0F5805F03D0B0F561
:10179000005F12D0012584F83D60002084F83C00F1
:1017A000284670BDCB68D1E90121206800F022FCF9
:1017B0002068816841F0770109E0CB68D1E9012117
:1017C000206800F017FC2068816841F48041816046
:1017D000E1E719E0CA684968206800F01DFC502163
:1017E000206806E0CA684968206800F026FC60218D
:1017F000206800F009FCCEE7CA684968206800F05C
:101800000BFC40212068F4E7226801461046F0E70F
:10181000704770B50446006801694FF00005C94380
:10182000890715D4C168C943890711D4E91E01612C
:1018300001202077206880698007204602D0FFF7CA
:10184000E7FF04E000F098F8204600F096F82577CE
:1018500020680169C943490717D4C168C9434907CA
:1018600013D46FF0040101610220207720688069A1
:1018700010F4407F204602D0FFF7CAFF04E000F0DA
:101880007BF8204600F079F8257720680169C94384
:10189000090716D4C168C943090712D46FF00801BB
:1018A0000161042020772068C0698007204602D0AB
:1018B000FFF7AEFF04E000F05FF8204600F05DF8AF
:1018C000257720680169C943C90617D4C168C9438F
:1018D000C90613D46FF01001016108202077206839
:1018E000C06910F4407F204602D0FFF791FF04E06A
:1018F00000F042F8204600F040F8257720680169A2
:10190000C943C90708D1C168C943C90704D1891EA1
:101910000161204600F032F820680169C9430906D8
:1019200009D4C168C943090605D46FF0800101617B
:101930002046FFF73FFE20680169C943490609D4E4
:10194000C168C943490605D46FF0400101612046D2
:1019500000F020F820680169C94389060BD4C168EA
:10196000C943890607D46FF0200101612046BDE814
:101970007040FFF720BE70BD704770470068B0F13F
:10198000804F03D101210248FEF77CBF7047000061
:10199000E80000207047704770470000F8B5016804
:1019A00004460868CA684B6910F00F0F4FF0000535
:1019B00059D003F0010602F49077374365D0C10790
:1019C00005D0D10503D5216C41F001012164410707
:1019D00005D5D90703D0216C41F0020121648107AC
:1019E00005D5D90703D0216C41F00401216401071A
:1019F00007D502F02001314303D0216C41F00801EA
:101A00002164216C00293AD0800604D5900602D5C5
:101A1000204600F053FB20684069216CC0F3801021
:101A2000090700D460B3204600F021FB206840691C
:101A3000400621D52068143050E8001F21F04001F5
:101A400040E80012002AF5D1A06BA8B16C490165ED
:101A5000A06BFFF738F9002811D0A06B016D01B021
:101A6000BDE8F040084783060FD593060DD5204604
:101A7000BDE8F84000F022BB2046FFF78DFFF8BD1F
:101A80002046FFF789FF2564F8BD266B2023012E31
:101A900079D1C60677D5D60675D50868486800900E
:101AA0004869400640D5A16B086840680004000CF6
:101AB000EAD0A28D8242E7D9E085C869B0F5807F7F
:101AC0002DD020680C3050E8001F21F4807140E8D0
:101AD0000012002AF5D12068143050E8001F21F0D0
:101AE000010140E80012002AF5D12068143050E8C6
:101AF000001F21F0400140E80012002AF5D184F8CF
:101B00003E30256320680C3050E8001F21F01001A2
:101B100040E80012002AF5D1A06BFFF78BF8A08DEA
:101B2000E18D401A81B229E0A08DE18D401A81B289
:101B3000E08D0028A8D00029A6D020680C3050E8FD
:101B4000002F22F4907240E80026002EF5D1206884
:101B5000143050E8002F22F0010240E80026002E49
:101B6000F5D184F83E30256320680C3050E8002F12
:101B700022F0100240E80023002BF5D12046FFF7A9
:101B80000AFFF8BDFFE705062BD5150629D594F801
:101B90003D002128F5D1A068B0F5805F01D1206912
:101BA000B0B1206A411C2162216800784860E08C55
:101BB000401E0004000CE084E3D12068C16821F0DD
:101BC0008001C1602068C16841F04001C160D8E770
:101BD000206A0088C0F308004860206A801C2062E8
:101BE000E5E74006CDD55006CBD5CA68204622F0A1
:101BF0004002CA6084F83D3000F09BF8C1E7000065
:101C00005F20000870B5040004D094F83D00002562
:101C100010B106E0012070BD84F83C50204600F071
:101C200023F8242084F83D002068C16821F4005185
:101C3000C160204600F0A2FA2068016921F49041B9
:101C400001612068416921F02A0141612068C16871
:101C500041F40051C1602564202084F83D0084F8DF
:101C60003E00002070BD0000F0B587B0044614218E
:101C70006846FEF7E5FA2A4F236800222949022424
:101C8000032507262848BB4221D1264B14331F6861
:101C900047F010071F601B6803F0100305930B68E3
:101CA00043F001030B60096802AB01F001010591EB
:101CB0006902CDE9001483E864006946FFF728F85B
:101CC000012211462520FFF78DF9252023E0174F2B
:101CD000BB4222D1134B10331F6847F400371F60FB
:101CE0001B6803F4003305930B6843F001030B609A
:101CF000096802AB01F0010105910C21CDE9001446
:101D000083E864006946FFF703F8022201212620D8
:101D1000FFF768F92620FFF757F907B0F0BD00007C
:101D200000100140303802400000024000440040F2
:101D300070477047FEE7000070B586B01421684612
:101D4000FEF77EFA19480024016841F004010160A1
:101D5000016801F004010591016841F08001016012
:101D6000016801F080010591016841F00101016005
:101D700000680F4E00F001004FF40055059000225E
:101D800029463046FFF7B9F800950125CDE9015401
:101D9000694630460394FEF7BBFFCDE9005469461F
:101DA00004480295FEF7B4FF06B070BD303802401B
:101DB000000802400000024010B586B00024174819
:101DC000009401940294039404944FF0804105948C
:101DD000016040F24731C0E9011440F2CF71C0E91F
:101DE00003148461FFF726FC08B1FEF721FF4FF4CE
:101DF0008050009069460948FFF79CFC08B1FEF747
:101E000017FF049404A905480594FFF7D5FB0028A3
:101E100001D0FEF70DFF06B010BD00001800002035
:101E200010B50E4C0C480C2120604FF4E13060607E
:101E30000020A060E060C4E90401A061E0612046E8
:101E4000FFF7E0FE08B1FEF7F3FE2068C16841F03D
:101E50002001C16010BD00000010014060000020A2
:101E600010B50E4C0C480C2120604FF4E13060603E
:101E70000020A060E060C4E90401A061E0612046A8
:101E8000FFF7C0FE08B1FEF7D3FE2068C16841F03D
:101E90002001C16010BD000000440040A4000020EB
:101EA000FEE7FEE770477047FFF732B830B593B0F2
:101EB00030216846FEF7C4F914210CA8FEF7C0F9DA
:101EC0001D480024016841F080510160006800F065
:101ED000805011901948016821F4404141F40041BB
:101EE00001600068022500F4404011900120039039
:101EF00010200490009506950820CDE90740542055
:101F0000CDE9090504200B906846FFF789F908B16F
:101F100072B6FEE70F20CDE90C054FF48050CDE9F5
:101F20000E4002210CA81094FFF78EF8002801D073
:101F300072B6FEE713B030BD40380240007000407A
:101F40000248016841F470010160704788ED00E0CB
:101F50000148FFF75EBC000018000020F0B50268E1
:101F60001D4B1E4C9F031E4D1E4E984207D0B8427B
:101F700005D0A04203D0A84201D0B04204D122F043
:101F8000700C4A6842EA0C02984210D0B8420ED057
:101F9000A0420CD0A8420AD0B04208D0124CA042B5
:101FA00005D0124CA04202D0114CA04203D122F421
:101FB0004074CA6822434C6922F0800222430260C6
:101FC0008A68C2620A688262984201D10969016323
:101FD00001214161F0BD000000000140000400400B
:101FE00000080040000C0040004001400044014057
:101FF0000048014010B5846842EA032224F47F447B
:102000000A432243826010BD826822F070020A43B4
:1020100042F007018160704710B5036A046A24F03A
:1020200001040462846924F0F00444EA021423F0F9
:102030000A020A438461026210BD10B5036A23F0EC
:10204000100303628369046A23F4704343EA023293
:1020500024F0A00343EA01118261016210BD10B5B2
:10206000806B0021C185C184FFF796FC10BD01681B
:102070000C3151E8002F22F4907241E80023002B2C
:10208000F5D10168143151E8002F22F0010241E836
:102090000023002BF5D1016B012909D101680C3116
:1020A00051E8002F22F0100241E80023002BF5D167
:1020B000202180F83E1000210163704708B590F898
:1020C0003E10222901D0022008BD82684FF48053BF
:1020D0009A4201D1016921B1816A9A421BD04AB169
:1020E0000AE00268816A5268C2F308020A80816AC3
:1020F000891C08E0026972B10268526802F07F022E
:102100000A70816A491C8162C18D491E0904090C4B
:10211000C18503D019E002685268F1E70168CA6816
:1021200022F02002CA600168CA6822F48072CA6084
:1021300001684A6922F001024A61202180F83E10BC
:10214000016B012903D0FFF7F3FD002008BD00213A
:10215000016301680C3151E8002F22F0100241E8C0
:102160000023002BF5D101680A68D20602D50A685F
:1021700049680091818DFFF70EFCE6E770B50446D3
:1021800000680169E26821F440511143016121694D
:10219000A068E26908436169114308432168CA687D
:1021A00049F20C639A430243CA6020684169A269FC
:1021B00021F440711143416131492068884202D0C5
:1021C0003049884202D1FEF7E9FF01E0FEF7D6FF71
:1021D000E2690023192164253226B2F5004F6268B6
:1021E00028D0A0FB0101930F9200FDF7F1FF0146FB
:1021F000B0FBF5F06FF01802504301EB800006EBE6
:102200000010B0FBF5F000F0F002B1FBF5F002EBCE
:102210000012B1FBF5F06FF01803584301EB80009A
:1022200006EB0010B0FBF5F000F00F002168104441
:10223000886070BDA0FB010192185B41FDF7C8FFEB
:102240000146B0FBF5F00201B1FBF5F06FF01803A9
:10225000584301EB800006EBC000B0FBF5F000F046
:10226000F80002EB4002B1FBF5F0584301EB8000AF
:1022700006EBC000B0FBF5F000F00700D6E7000069
:10228000001001400014014010B5FEF74DFCBDE800
:1022900010400148FFF782BB60000020064800683C
:1022A0000168C943890604D440680449C0B209687A
:1022B00048600148FFF772BBA400002060000020C6
:1022C0000FB42DE9FF410CAD0A274FF0000E39483D
:1022D0001AE05C2A04D0252A1ED003685A600CE05C
:1022E000491C0B910A786E2A05D0722A05D1026822
:1022F0000D23536001E002685760491C0B9101688F
:102300000A68D2431206FBD40B990A78002AE0D15E
:10231000BDE8FF015DF814FB491C0B910A78642AA3
:102320000FD0732AE9D104CD07E004686360036825
:102330001C68E4432406FBD4521C1378002BF4D110
:10234000DBE702CD00266B4600291FD007DA4FF0ED
:102350002D028DF80020C1F1000103F1010342F2CA
:10236000107400BF91FBF4F252EA060C06D002F1A1
:10237000300603F8016B02FB1411012694FBF7F4FD
:10238000002CEFDC83F800E069460DE030218DF889
:1023900000108DF801E0F7E703685A6002681368DF
:1023A000DB431B06FBD4491C0A78002AF4D10B99A5
:1023B000A3E7000060000020FEE700000FB4054B1B
:1023C00010B503A9044A029800F028F810BC5DF883
:1023D00014FB0000D5250008140000200907090E91
:1023E000002804DB00F1E02080F80014704700F0C2
:1023F0000F0000F1E02080F8141D704702E008C8CB
:10240000121F08C1002AFAD170477047002001E06E
:1024100001C1121F002AFBD1704700002DE9FF4FB8
:102420008BB09A460F460546002606E025280BD0BD
:1024300052460D9990476D1C761C28780028F5D1DE
:102440000FB03046BDE8F08F0024A046012260495D
:1024500000E0044315F8013F203B02FA03F0084274
:10246000F7D128782E2817D115F8010F44F004046D
:102470002A280ED06FF02F022878A0F13001092908
:102480000AD808EB880102EB410100EB01086D1C42
:10249000F2E757F8048B6D1C287869283ED006DCDB
:1024A0000028CDD063280BD0642804D136E07328EF
:1024B00010D075284BD052460D999047761C85E078
:1024C00017F8040B8DF8000000208DF80100E94694
:1024D000012003E057F8049B4FF0FF3061074FF0F5
:1024E000000401D40AE0641C44450DDA8442FADB9E
:1024F00019F804100029F6D106E0641C8442FCDBC4
:1025000019F804100029F8D1264404E019F8010B49
:1025100052460D999047641EF8D257E001CF4FF014
:102520000A0B002802DA40422D2102E0210504D5E1
:102530002B218DF82410012103E0E10705D0202193
:10254000F7E70DF1200908910CE00021F9E701CF30
:102550004FF00A0BF9E75946FDF752FF01F130023F
:1025600009F8012D0028F6D1ADEB090000F1200B90
:10257000600701D44FF00108D84502DDA8EB0B003D
:1025800000E000208046002406E009A85246005DD5
:102590000D999047641C761C08988442F5DB04E092
:1025A000302052460D999047761CB8F10001A8F1F1
:1025B0000108F5DC05E019F8010B52460D9990472A
:1025C000761CBBF10001ABF1010BF4DC6D1C34E7B0
:1025D0000928010006490A681368DB431B06FBD47F
:1025E000C3B2536009680A68D2435206FBD47047ED
:1025F000A400002010B5012251030548FEF77DFC20
:1026000004484178002901D10121417010BD00002A
:10261000000802401000002010B500224FF40051C5
:102620000448FEF76AFC04480178002901D1012121
:10263000017010BD0008024010000020FEF770FC81
:10264000FFF734FCFFF778FBFFF7EAFBFFF708FC26
:10265000FFF7B2FBFEF75CF9FEF788F9FCE7000034
:102660000000000000000102030406070809000042
:10267000000001020304DDDDDDDDDCBBBBDDDDDDF3
:10268000DDDDDDDDDDDD98888888888888887777DE
:102690007777778888888555555666666666666654
:1026A0006666666888888333333222222222222299
:1026B00022222228888D0000D82600080000002051
:1026C00018000000FC230008F02600081800002075
:1026D000E80800000C2400080100000010000000C1
:1026E000000000000024F4000000000000000000D2
:040000050800019559
:00000001FF
